:100000000C9472000C9486000C9486000C9486006C
:100010000C9486000C9486000C9486000C94860048
:100020000C9486000C9486000C9486000C94860038
:100030000C9486000C9486000C9486000C94860028
:100040000C9486000C9486000C9486000C94860018
:100050000C9486000C9486000C9486000C94860008
:100060000C9486000C94B9000C9486000C948600C5
:100070000C9486000C9486000C9486000C948600E8
:100080000C9486000C9486000C9486000C948600D8
:100090000C9486000C9486000C9486000C948600C8
:1000A0000C9486000C9486000C9486000C948600B8
:1000B0000C9486000C9486000C9486000C948600A8
:1000C0000C9486000C9486000C9486000C94860098
:1000D0000C9486000C9486000C9486000C94860088
:1000E0000C94860011241FBECFEFD1E2DEBFCDBF3E
:1000F00000E00CBF12E0A0E0B2E001C01D92A13010
:10010000B107E1F70E9412010C9415010C94000054
:100110003B9A4398089581B18F6081B982B1807F05
:1001200082B9EAE0F1E0808188618083EBE0F1E070
:1001300080818861808308950E948B000E948800DE
:10014000089586B1886088B9089586B1877F88B997
:100150000895E1ECF0E010821092C00086E08093F8
:10016000C2008FE58093C4001092C50088E98083A7
:1001700008951F920F920FB60F920BB60F92112493
:100180002F933F934F935F936F937F938F939F939F
:10019000AF93BF93EF93FF9385E58093C600809163
:1001A0000002873711F486E082B98091000283371C
:1001B00011F489E082B980910002813611F485E062
:1001C00082B980910002843611F48AE082B980916C
:1001D0000002883709F412B880910002883611F4C1
:1001E0000E94A10080910002893611F40E94A500AE
:1001F000FF91EF91BF91AF919F918F917F916F91FF
:100200005F914F913F912F910F900BBE0F900FBEBA
:100210000F901F901895F8940E949C000E94A900CE
:0E022000789408950E940B01FFCFF894FFCF51
:00000001FF
